:100000000C94EE030C940B040C940B040C940B0452
:100010000C940B040C940B040C940B040C940B0424
:100020000C940B040C940B040C9473240C9447252F
:100030000C94D51E0C940B040C940B040C940B0420
:100040000C940B040C940B040C940B040C940B04F4
:100050000C940B040C945C1F0C940B040C940B0478
:100060000C940B040C940B040C940B040C940B04D4
:100070000C940B040C940B040C940B040C940B04C4
:100080000C940B040C940B040C940B040C940B04B4
:100090000C940B040C940B040C940B040C940B04A4
:1000A0000C940B040C940B040C940B040100010041
:1000B00001000100010000000100140004001D689F
:1000C0000100010001001A0016641B7401002B429C
:1000D000010008000761060001002C410100150025
:1000E0000962190029430100010017000A6F050089
:1000F00000000100075301000000010000000100A2
:1001000001000100000001000000010001001C00CE
:100110000B6F110000000100010018000D621000BB
:100120004C46010001000C000E61360001002A441B
:10013000010012000F64377401002845010013000C
:1001400034003868010001000100010001000100D5
:100150000100000001000100010001000100000099
:100160000100005C0000E30001000100010000004C
:10017000E200E6000100000001000000E0000000D5
:100180000100010001000000E1000000000001008A
:10019000010000000000000000000100010001005B
:1001A000000001000000010001000100000001004A
:1001B00000000100010000005000490000000100A3
:1001C0000100490251004A004C00010001004901B0
:1001D00052004E0001002A0001004C024F004B006B
:1001E0000100280001001D0139004D00010001003F
:1001F00001000100010001000100000001000100F8
:1002000001000100010000000100005C0000E300AB
:100210000100010001000000E200E6000100010011
:1002200001000000E00000000100000001000000EB
:10023000E1000000000001000100000000000000DB
:1002400000000100010001000000010000000100A9
:100250000100010000000100000001000100000099
:10026000EF00FC000000010001004902EE00F9006F
:10027000F300010001004901ED00FA000100F10066
:1002800001004C02F000FB000100F20001001D0122
:100290000000000001000100010001000100010058
:1002A0000100000001000100010001000100000048
:1002B0000100005C0000E3000100010001000000FB
:1002C000E200E6000100000001000000E000000084
:1002D0000100000001000000E10000000100010039
:1002E000010000000000000000000100010001000A
:1002F00000000100000001000100010000000100F9
:10030000000001000100C35C0000000000000100CB
:100310000100C45CAC000000A80001000100C65C44
:10032000AA0000000100AE000100C85CA9000000A6
:100330000100AD000100CA5CAB000000010001003B
:1003400001000100010001000100000001000100A6
:10035000010001000100000001002F003300350002
:10036000010001000100240021001E0001002D00F9
:100370000100250022001F000100270001002600C7
:100380002300200037000100010030002E00310062
:100390000000010001000100000001000000010058
:1003A0000100010000000100000001000100000048
:1003B000000000000000010001000000E10000005A
:1003C0000000010001000000E00000000100010049
:1003D00001000000E200E600010000000100005CF6
:1003E0000000E30001000100010001000100010024
:1003F00001000000010001000100010001000000F7
:1004000001002F0233023502010001000100240225
:1004100021021E0201002D020100250222021F02FC
:100420000100270201002602230220022602010009
:10043000010030022E023102000001000100010023
:1004400000000100000001000100010000000100A7
:100450000000010001000000000000000000010099
:1004600001000000E10000000000010001000000A8
:10047000E00000000100000001000000E200E600D2
:10048000010001000100005C0000E3000100010028
:100490000100010001000100010000000100010055
:1004A000010001000100000001004500440043007C
:1004B00001000100010040003D003A0001002B0056
:1004C000010041003E003B0001002C000100420001
:1004D0003F003C0065000100010046004700480065
:1004E0000000010001000100000001000000010007
:1004F00001000100000001000000010001000000F7
:10050000000000000000010001000000E100000008
:100510000100010001000000E000000001000000F7
:1005200001000000E200E600010000000100005CA4
:100530000000E300010001000100010001000100D2
:1005400001000000010001000100010001000000A5
:100550000100015A075A085A010001000100025A1D
:10056000095A0A5A0100105A0100035A0B5A0C5A30
:1005700001000F5A0100045A0D5A0E5A01000100E1
:100580000100055A115A125A000001000100010031
:100590000000010000000100010001000000010056
:1005A000000001000100065A165A175A0000010007
:1005B0000100235A1A5A1B5A010001000100245A53
:1005C0001C5A1D5A0100195A0100255A1E5A1F5A59
:1005D0000100185A0100265A205A215A0100010030
:1005E0000100275A225A295A0100000000D0D0D019
:1005F000D0D0D001010204081020414244484800F4
:100600000000484850608182848890A0C1C2C4D054
:10061000D0D0D0D0D0C80000000000000000000002
:10062000000000000000000000000000160345006C
:10063000720067006F0044006F00780020004500E2
:100640005A00000028035A005300410020005400C3
:100650006500630068006E006F006C006F0067004B
:10066000790020004C006100620073000000040368
:10067000090409025F00030100A0FA090400000157
:100680000301010009211101000122F80007058181
:1006900003200001080B010202020100090401000D
:1006A00001020201000524001001042402020524B5
:1006B000060102070582030800FF09040200020A7E
:1006C0000000000705040210000507058302100062
:1006D0000512010002EF020108973274490100017E
:1006E00002000105010906A1018501050719E0299C
:1006F000E7150025019508750181029501750881AE
:10070000010507190029FF150026FF009506750849
:1007100081000508190129059505750191029501CA
:1007200075039101C005010902A10185020901A11A
:100730000005091901290815002501950875018191
:10074000020501093009311581257F95027508815F
:100750000609381581257F950175088106050C0A63
:1007600038021581257F950175088106C0C00501F5
:100770000980A101850319012AB700150126B700D8
:10078000950175108100C0050C0901A101850419AE
:10079000012AA002150126A002950175108100C052
:1007A00005010906A1018506050719E029E71500DD
:1007B00025019508750181020507190029EF15002B
:1007C000250195F075018102050819012905950596
:1007D00075019102950175039101C00011241FBE9E
:1007E000CFEFDAE0DEBFCDBF11E0A0E0B1E0ECE09A
:1007F000F5E502C005900D92A43AB107D9F723E0C0
:10080000A4EAB1E001C01D92A630B207E1F70E9450
:10081000A9160C94672A0C9400008098889A8198F5
:10082000899A84988C9A85988D9A86988E9A8798BA
:100830008F9A0895209828982198299822982A9884
:1008400023982B9852985A9853985B983E984698BC
:100850000895CF93C82F873078F580910601909145
:100860000701892B39F564E670E080E40E94901C52
:100870009093070180930601892BD1F464E670E020
:1008800082E10E94FE1C9093070180930601892B50
:1008900079F481E090E001C0880FCA95EAF764E638
:1008A00070E080950E94FE1C9093070180930601E2
:1008B0000E94511DCF9108958A30B1F038F48830EC
:1008C00069F0893071F0209A2898F4CF8C3091F03B
:1008D00070F08D30C1F73E9A4698ECCF219A299856
:1008E000E9CF229A2A98E6CF239A2B98E3CF529AFF
:1008F0005A98E0CF539A5B98DDCFCF93873050F56D
:100900008091060190910701C0E0892B71F464E6A3
:1009100070E081E40E94901C90930701809306018F
:10092000892B31F0C0E00E94511D8C2FCF9108958A
:1009300084E690E00E942D1D97FF05C0909307016B
:1009400080930601EFCFC82FC09510920701109237
:100950000601E9CFCFB18FB1869586958C73C370B0
:100960008C2BC82FC095E1CF0E94BE0590E09093DC
:100970000701809306010E941A040E940D04089545
:10098000EF92FF920F931F93CF93DF938091060115
:1009900090910701892B91F08091A6018F5F809340
:1009A000A60181110BC00E94BE0590E09093070143
:1009B00080930601892B11F40E94510505ED12E088
:1009C000C0E0D0E087E0E82EEC0E8C2F0E942904D6
:1009D0008E2D0E9429048C2F0E947D048F73F801B4
:1009E00091918F01F12C891721F031978083FF2499
:1009F000F3948E2D0E947D048F73F80196818917E0
:100A000079F0868381E08F29D82B0E941A04CF5F6A
:100A1000C730C1F68D2FCDB7DEB7E6E00C94D828ED
:100A200080E0F1CF0E94BE0590E090930701809393
:100A300006010E941A040E940D04E3EEF2E01192F6
:100A400082E0E13FF807D9F70895259A2D9A089595
:100A5000269A2E9A0895279A2F9A089556985E9866
:100A6000089525982D98089526982E9808952798EA
:100A70002F9808950E942E050E9431050E9434058A
:100A80000E943705089590E0909389008093880034
:100A900090938B0080938A0090938D0080938C00BC
:100AA00008950E943A058FEF0E9443050E94250594
:100AB0002FEF80E792E0215080409040E1F700C0A6
:100AC00000000E9428052FEF80E792E0215080402F
:100AD0009040E1F700C000000E942B052FEF80E757
:100AE00092E0215080409040E1F700C000000E9459
:100AF00031052FEF80E792E0215080409040E1F7F0
:100B000000C000000E9434052FEF80E792E02150E2
:100B100080409040E1F700C000000E9437050E942D
:100B20003A05089589EA8093800089E080938100E6
:100B300024982C983F988AB18F7C8AB96E98479AEE
:100B40008BB180638BB9769A0E948D126093CF022D
:100B50007093D0028093D1029093D20267702FEFEE
:100B6000629FC001112495958795959587950E9460
:100B700043050E9451050E945106089580E290E0CD
:100B800090930701809306018091A70181110EC007
:100B90000E948A1C81E08093A7012FEF83ED90E3F0
:100BA000215080409040E1F700C0000064E670E012
:100BB00080E40E94901C9093070180930601892B8A
:100BC00009F04EC064E670E080E00E94FE1C909345
:100BD000070180930601892B09F042C064E670E0AA
:100BE00080E00E94FE1C9093070180930601892BF0
:100BF000B9F564E670E08FE30E94FE1C9093070154
:100C000080930601892B61F50E94511D64E670E016
:100C100080E40E94901C9093070180930601892B29
:100C2000F9F464E670E08CE00E94FE1C90930701EA
:100C300080930601892BA1F464E670E080E00E94B5
:100C4000FE1C9093070180930601892B49F464E60A
:100C500070E08FE30E94FE1C9093070180930601D1
:100C60000E94511D8091060108951092CF021092AA
:100C7000D0021092D1021092D20284E0806180935F
:100C8000CF026091CF027091D0028091D1029091F9
:100C9000D2020E9492120E94A01208950E94DD15B5
:100CA000089581E00E94EB16089581E00895CF92A7
:100CB000DF92EF92FF92CF936B017C010E94850738
:100CC000C82F0E942E050E9431050E9434050E9403
:100CD0003705C150C73040F4EC2FF0E0E759F54D2F
:100CE0000C94AA280E942505C701B601CF91FF9058
:100CF000EF90DF90CF9008950E9425050E9428056F
:100D0000F3CF0E9425050E942B05EECF0E942505FA
:100D10000E942805F8CF893022E69207C1F050F4EE
:100D20008A3224E4920781F08832954469F088EC95
:100D300090E008958D3022E6920749F08D31984673
:100D4000B1F78CE291E0089580EA90E0089586E999
:100D500090E008958A3224E4920729F0883295447D
:100D600011F080E0089581E0089581E008950E94E7
:100D70005506089508950E94BA060895A5E0B0E0CA
:100D8000E4ECF6E00C94BF2849835A833091A90122
:100D900089819A81311119C0662399F0222389F043
:100DA0000E94860D182F682F89819A810E94620DFA
:100DB00069817A81812F0E94BB142596E3E00C940F
:100DC000DB280E94740D182FF3CF0E94860D6981D5
:100DD0007A81F1CFFC01262F40815181628173819C
:100DE00084810E94BE06089581E00895CF93DF9329
:100DF000EC0160E00E94EA06BE010E94BB06DF91A2
:100E0000CF9108950E94920508950E944E0608957C
:100E100008950E94B40B0E9408072FEF84E39CE022
:100E2000215080409040E1F700C0000008950E94EA
:100E300009070E94801F08950E9409070E94B21F9F
:100E400008950F931F93CF93DF938C0161E00E946D
:100E5000EA06EC01B8010E94B706811106C080E0E5
:100E6000DF91CF911F910F910895B801CE010E949B
:100E7000FE168823A1F3B801CE010E94381C8823F6
:100E800071F3B801CE010E94621A882341F3B801C0
:100E9000CE010E949F1B882311F3F80182818823D1
:100EA00061F0CB35FDE5DF0701F158F4C115ECE544
:100EB000DE0791F0CF3DDC4591F0C8010E94B506F8
:100EC000CFCFCD358DE5D80769F090F0C83ADD4534
:100ED000A1F70E941C07C3CF0E941707C0CF0E9432
:100EE0000613F7CF0E944A12E8CF0E945412E5CFB2
:100EF0000E945812E2CF0E94B31E0E94E507089597
:100F00000E94E9070E94B71E0895CF92DF92EF92E8
:100F1000FF926C01EE24FF2420E0C114D104E1040F
:100F2000F10419F0C701B60120E1C72ED82EE92E31
:100F3000FF24C114D104E104F10419F0285FC701B2
:100F4000B6016B017C0154E0F694E794D794C79402
:100F50005A95D1F7C114D104E104F10419F02C5FC2
:100F6000C701B6016B017C0142E0F694E794D79487
:100F7000C7944A95D1F7C114D104E104F10419F0E2
:100F80002E5FC701B6019695879577956795672B74
:100F9000682B692B09F02F5F822FFF90EF90DF9075
:100FA000CF90089508950E94D207089581E0089592
:100FB0000E94D60708950895CF93C82F0E94D307A3
:100FC0008C2F0E94D807CF91089580E00E94DC0703
:100FD00008950E945F1D0E94DC0708950E945F1D16
:100FE0009091A801981721F08093A8010E94DC0736
:100FF0000895ABE0B0E0EFEFF7E00C94C0284F832A
:10100000588769877A878B8761110E9495111E82A4
:101010001D8285E0FE013796DE01119601900D924A
:101020008A95E1F78C819D81892B61F449815A81F0
:101030006B817C818D819E810E94BE102B96E2E0A7
:101040000C94DC2889819A8189238F3F79F3CE0122
:1010500001960E94F4068111E9CFF0CFFC01808156
:1010600091810E94C00D0895CF93C82F8823C9F0A5
:101070008238C9F40E945F1D81FD13C089E30E947C
:101080004D110E94B6112FEF81EE94E02150804067
:101090009040E1F700C0000089E30E9455110E94D2
:1010A000B611CF9108958338A1F40E945F1D80FD91
:1010B000F8CF83E50E944D110E94B6112FEF81EE0B
:1010C00094E0215080409040E1F700C0000083E5AB
:1010D000E4CF8438A1F40E945F1D82FDE2CF87E453
:1010E0000E944D110E94B6112FEF81EE94E0215025
:1010F00080409040E1F700C0000087E4CECF8CEF45
:101100008C0F813A90F46C2F809108019091090125
:101110000E94D91D882329F08C2F0E9455110E940E
:10112000B6118C2F0E944D11BACF80E28C0F8830FF
:1011300048F4C77081E001C0880FCA95EAF70E94A1
:101140007811ADCFEBE5EC0FE33040F4F0E0E1597E
:10115000FE4F808190E00E94921DA3CFE8E5EC0F46
:10116000E73150F4F0E0EE0FFF1FEF5BFE4F8081A0
:1011700091810E94A81D95CFCD3E08F492CF8C2F6F
:101180000E9470180E9443198CCF882309F455C01F
:10119000823879F40E945F1D81FF4FC089E30E946D
:1011A0004D110E94B61189E30E9455110E94B6119B
:1011B0000895833859F40E945F1D80FF3EC083E587
:1011C0000E944D110E94B61183E5EECF843859F488
:1011D0000E945F1D82FF31C087E40E944D110E9472
:1011E000B61187E4E1CF9CEF980F913AE8F290E2D4
:1011F000980F983050F4877091E001C0990F8A954C
:10120000EAF7892F0E947E11D1CF9BE5980F93308A
:1012100028F490E080E00E94921D089598E5980FD0
:10122000973128F490E080E00E94A81D08958D3E3B
:1012300020F00E94CA180E94431908951F93CF936B
:10124000DF93182FEB010E943408209739F4812F87
:101250000E94C508DF91CF911F9108958FE99FE00B
:101260000197F1F700C000002197EFCF70E060E038
:10127000893311F460E570E00E941E090895882307
:1012800021F00E9478110E94B6110895882321F060
:101290000E947E110E94B6110895B0E0A0E0E3E53F
:1012A000F9E00C94B9286C01D62FC72FFC011281EC
:1012B000058102950F700E946E11E82E8823B9F007
:1012C000E12E1123A1F08C2F807F803421F080E269
:1012D0008D0F8830C8F08091D40282FF15C082E063
:1012E0000E9419120E946E1191E0E82EE926BC2E90
:1012F000B2949FE0B922FBE0FB15B8F1EB2DF0E0D2
:10130000E059F54D0C94AA28E12CF1CF0C2F0F7069
:10131000C07F11F00295007F112399F0002359F04E
:1013200080E28D0F883010F0D11107C0802F0E940D
:1013300078110E94B6118D2F5AC0802F0E948811FB
:10134000F8CF8D2F0E94C508002379F080E28D0F21
:10135000883010F0D11104C0802F0E947E1103C08C
:10136000802F0E948E110E94B611EB2DE850FF0BCA
:10137000349720F40E945F1D0E94DC07EE2089F064
:101380000E946A1180FD0DC0F60112820E94641154
:101390000E946A0CC6010E94740B0E9464110E9494
:1013A0008C0CCDB7DEB7E9E00C94D5282C2F2F702C
:1013B000F22EC07FC03219F0F29480EFF822DD23C4
:1013C00041F0D130E9F1112309F444C00023E9F1DF
:1013D000B2CF8091D40282FD15C0112359F0FF20B5
:1013E00029F08F2D0E9478110E94B61180E00E9492
:1013F0003408BBCF80E00E94C508FF2009F4B5CFB8
:101400008F2DABCF112381F0011106C00E949811DE
:101410008F290E943F09A9CF0130C1F70E9498117E
:101420008F290E949F11A1CF011106C00E94AC110B
:101430008F2D0E94460999CF013009F496CFF6CF3F
:10144000112329F0023008F090CF8F2DE2CF011147
:101450008CCFEECF002361F3D93349F43FEF87EE11
:1014600093E0315080409040E1F700C000008D2FA4
:101470000E94C5087ACF8C2F86958695837069F077
:10148000813009F072CF8D2F9C2F9370111102C003
:1014900090E080E00E94A81D68CF8D2F9C2F937054
:1014A000111102C090E080E00E94921D5ECF8D2F4E
:1014B000112329F00E9470180E94431956CF0E94F0
:1014C000CA18FACF8C2F837009F041C011114DCF8B
:1014D0004D2F429546954770440F440F0D2F0F70C6
:1014E00010E030E020E0042E04C0000F111F221F86
:1014F000331F0A94D2F760E070E0CB01D4FF0FC035
:101500006FE070E080E090E004C0660F771F881FF6
:10151000991F4A95D2F76095709580959095C695DC
:10152000C695C370602B712B822B932BC23049F070
:1015300058F4C13019F00E94180C17CF0E94050C06
:1015400014CF0E942B0C11CF0E94020C0ECF869557
:10155000112311F08C2F8170882309F406CF4D2FB1
:10156000429546954770440F440F0D2F0F7010E0C1
:1015700030E020E0042E04C0000F111F221F331F93
:101580000A94D2F760E070E0CB01D4FF0FC06FE0A7
:1015900070E080E090E004C0660F771F881F991FFD
:1015A0004A95D2F76095709580959095C695C695A9
:1015B000C370602B712B822B932BC23049F058F4EF
:1015C000C13019F00E94E50CD0CE0E94D20CCDCED5
:1015D0000E94F80CCACE0E94410CC7CECF701123D6
:1015E00029F08C2F0E946A0C8D2F13CF8D2F0E9413
:1015F00046098C2F0E948C0CB8CED23F39F160F492
:10160000D03FB9F0D13F81F0112309F445C0011159
:1016100092CE8C2F8F711EC0D33FF9F0D43FA1F72B
:101620008091D40282FD23C08C2F8F71112311F37E
:1016300011C0112339F0011198CE8C2F8F710E94A7
:10164000B00C93CE023008F090CEF7CF8C2F8F7174
:101650001111D0CF0E946A0C88CE112329F08C2F53
:101660008F710E94540C81CE0E944E0C7ECE1123AD
:1016700049F0CF718C2F0E946A0C63E08C2F0E947E
:10168000FB1173CE81E00E941912023008F46DCE76
:1016900082E00E94191269CE002359F0D93309F073
:1016A000E6CEEFEFF7EE23E0E150F0402040E1F727
:1016B000DCCE8C2F8F719ECF0F931F93CF93DF9330
:1016C000EC01688179818A810E94CB0D8C010E9496
:1016D0000B0D0E94010CB801CE010E944D09DF9153
:1016E000CF911F910F910895CF93DF93EC018B81E0
:1016F0009C81892B29F08881998189238F3F51F41E
:10170000DF91CF910895CE010E945C0BCE010E9423
:10171000F606F6CFCE010E9421078111F4CF0E9478
:101720006E11882369F38A81882351F38091D40252
:1017300082FFE6CF82E00E941912E2CF90E080E0C3
:101740000E94921D90E080E00E94A81D0E949511C9
:101750000E94B6110E94541A0E94431908950E94D3
:101760005D110E949E0B08950E9485110E94AF0B8F
:10177000089592959F70963091F058F4925F9F7003
:10178000923058F4803F19F030F4883E30F481E014
:1017900008959A5FF4CF843FD1F380E00895883EA6
:1017A000B0F3813FD1F7F3CFFC01808191810E949A
:1017B000C00D0E94B90B0895A5E0B0E0E2EEFBE099
:1017C0000C94C0282596E2E00C94DC28A6E0B0E05A
:1017D000ECEEFBE00C94C0282696E2E00C94DC28AA
:1017E00008950E94F00B08950E94F10B6093E501AB
:1017F0007093E6018093E7019093E8010E949E0BAD
:10180000089508950E94F40B08950F931F9300917B
:10181000E5011091E6012091E7013091E801602B8C
:10182000712B822B932B0E94F40B1F910F91089523
:101830000F931F930091E5011091E6012091E701BC
:101840003091E80160237123822393230E94F40BDB
:101850001F910F9108950F931F930091E50110912F
:10186000E6012091E7013091E80160277127822786
:1018700093270E94F40B1F910F9108950E94570621
:1018800008950E943E0C6093E1017093E201809301
:10189000E3019093E4010E949E0B089560E070E0E4
:1018A000CB010E94410C08950F931F9341E050E03B
:1018B00060E070E08A019B0104C0000F111F221F2D
:1018C000331F8A95D2F7C901B8010E94410C1F91BC
:1018D0000F9108950F931F9341E050E060E070E096
:1018E00004C0440F551F661F771F8A95D2F7809159
:1018F000E1019091E201A091E301B091E4018A013C
:101900009B01082B192B2A2B3B2BC901B8010E94E4
:10191000410C1F910F9108950F931F9341E050E0E8
:1019200060E070E004C0440F551F661F771F8A9562
:10193000D2F7CB01BA016095709580959095009192
:10194000E1011091E2012091E3013091E401602373
:101950007123822393230E94410C1F910F910895BC
:101960000F931F9341E050E060E070E004C0440F2B
:10197000551F661F771F8A95D2F78091E1019091DC
:10198000E201A091E301B091E4018A019B010827E3
:1019900019272A273B27C901B8010E94410C1F9132
:1019A0000F9108950F931F930091E1011091E201AF
:1019B0002091E3013091E401602B712B822B932B5A
:1019C0000E94410C1F910F9108950F931F93009156
:1019D000E1011091E2012091E3013091E4016023E3
:1019E0007123822393230E94410C1F910F9108952C
:1019F0000F931F930091E1011091E2012091E30107
:101A00003091E40160277127822793270E94410CBF
:101A10001F910F9108950895262F277091E001C01E
:101A2000990F2A95EAF723E0769567952A95E1F7CD
:101A300025E0269FF001279FF00D1124E40FF51FEC
:101A400050E040E0682F70E08191DF0111979B0129
:101A5000042E02C0369527950A94E2F7217021954D
:101A60002827292328272C934F5F5F4F45305105A6
:101A700059F70895A82FA77023E0969587952A9582
:101A8000E1F725E0289FF001299FF00D1124E60FD2
:101A9000F71F50E040E080E0219130E00A2E02C0C4
:101AA000369527950A94E2F721703327042E01C05A
:101AB000220F0A94EAF7822B4F5F5F4F45305105A2
:101AC00059F70895262F9E3070F4863060F4682F01
:101AD00070E086E0989F600D711D11244AEA51E084
:101AE000822F0E940C0D0895292F9E3068F48630B5
:101AF00058F490E06AEA71E036E0239F800D911D72
:101B000011240E943A0D089580E00895B0E0A0E00D
:101B1000ECE8FDE00C94B9288C01C090E101D09074
:101B2000E201E090E301F090E4018091E501909101
:101B3000E601A091E701B091E801C82AD92AEA2A72
:101B4000FB2ACFE1D0E0BC2ED701C6010C2E04C089
:101B5000B695A795979587950A94D2F780FD09C009
:101B6000219788F7B12C8B2DCDB7DEB7E9E00C9427
:101B7000D528B8018C2F0E94D614019789F3F3CF92
:101B8000CF93DF93EC010E94860DBE010E94D61414
:101B9000DF91CF9108951F93CF93DF93EB01909145
:101BA000A901992339F0CB010E94C00DDF91CF919B
:101BB0001F910895882369F0CB010E94860D182F8C
:101BC000682FCE010E94620DBE01812F0E94D614A3
:101BD000EDCFCB010E94740D182FF6CF1F93CF933A
:101BE000DF93C091E90116E08091EA018C1304C0F3
:101BF000DF91CF911F910895D0E01C9FF0011D9FB0
:101C0000F00D1124E551FE4F4081518162817381B5
:101C1000848195810E94E60B2196C770E5CF4091A3
:101C20001B0250911C0260911D0270911E02809156
:101C30001F02909120020E94E60B08952091E90175
:101C40009091EA0156E0291302C080E0089530E047
:101C5000529FF001539FF00D1124E551FE4F718109
:101C6000761306C07081781303C07281741304C0A8
:101C70002F5F3F4F2770E7CF81E00895B0E0A0E0ED
:101C8000E4E4FEE00C94BB2880912002807F09F000
:101C900055C080911D02882309F450C0C091E9010C
:101CA00086E0D82E8091EA018C1709F447C0209174
:101CB0001E0230911F02D0E02115310541F08091C4
:101CC0001B0290911C02482F49234F3F19F4219683
:101CD000C770E8CFDC9E8001DD9E100D1124F80155
:101CE000E551FE4F41814913F2CF90819813EFCF18
:101CF00082818111ECCFE380F480E21AF30A60E084
:101D00008BE192E00E94EA066BE172E00E948B0692
:101D1000E816F906E0F6809120028F7080618093CA
:101D20002002F801E051FE4F80818F708061808336
:101D30008BE192E00E94740B0E94EE0DCDB7DEB7EE
:101D4000E7E00C94D728A1E1B0E0E9EAFEE00C94CA
:101D5000B2288C0185E0F801DE011D9601900D92FC
:101D60008A95E1F7D8014C9011965C9011971296E4
:101D70007C9012971396ED90FC9060E08BE192E0DE
:101D80000E94EA066C018BE1882E82E0982E209159
:101D90001E0230911F022115310541F080911B0276
:101DA00090911C0289238F3F09F094C17110FBC0F0
:101DB000C8010E94740B73C0E114F10429F0852D51
:101DC00084218F3F09F005C180E0B82FB170EB2E60
:101DD00080FF29C0472D652D842D0E941E0EF82EF0
:101DE000811121C04D865E868D859E850E94C00D25
:101DF000292F22952F70223050F0243078F49F70D4
:101E000051F0F8019581907F31F46F2C04C19F70DF
:101E100011F08823D1F3805E8830B8F3C8010E94A6
:101E2000740BFE2CF2CF772009F4F5C080912002CC
:101E3000816080932002612CEEC0892B49F0809153
:101E40001B0290911C02282F29232F3F09F0E8C084
:101E5000C8010E94D40B882309F4AACF772009F483
:101E6000A7CF80912002803270F020911B02309128
:101E70001C0238872F831986FB86EA868C87CE0161
:101E800007960E94740B86E0F801ABE1B2E0019086
:101E90000D928A95E1F70E943E0E0E940F0E662475
:101EA0006394B9C0211112C07E2DF98AE88AA2017B
:101EB000672D89890E94DC0B8BE192E00E94740BF4
:101EC00086E0F40111928A95E9F755C180911E02CE
:101ED00090911F02892B49F080911B0290911C0266
:101EE000282F29232F3F09F0B7C0C8010E94D40B27
:101EF000882309F45DCF772009F45ACF809120021E
:101F0000803208F220911B0230911C023A8329830F
:101F10001B82FD82EC828E83CE010196B2CF60E0FF
:101F20008BE192E00E94EA066BE172E00E948B0670
:101F3000A816B90650F5672C772009F439CF80919F
:101F40001E0290911F02892B49F080911B029091F3
:101F50001C02282F29232F3F09F098C0C8010E9496
:101F6000D40B811190CF8091200281608093200258
:101F7000C8010E94740B4FC086E0F801ABE1B2E0EB
:101F800001900D928A95E1F746C07E2DF98AE88A84
:101F9000A201672D89890E94DC0B86E0F401119271
:101FA0008A95E9F756C0C8010E94D40B682E882391
:101FB00009F4FECE86E0F801ABE1B2E001900D92AB
:101FC0008A95E1F78BE192E00E942E080E943E0E76
:101FD00040C081E08725F9CE81E08725B7C0D801D0
:101FE00011962C912913A0C0F801908198139CC0E0
:101FF00071109AC0809120028F70806180932002BE
:102000000E940F0E8BE192E00E94740B80912002DF
:10201000D80115968C93862D6196E0E10C94CE281C
:10202000F8012181291314CFD8019C91981310CF66
:102030008091200271100CCF15968C93C8010E94DC
:10204000740B86E0F801ABE1B2E001900D928A9545
:10205000E1F70E940F0EDFCFD80111962C912913C2
:1020600044CFD8019C91981340CF71103ECF8091FE
:10207000200215968C93C8010E94740BEBE1F2E0EC
:1020800086E0DF011D928A95E9F7C5CFF80121812D
:10209000291364CFF8019081981360CF6BE172E04F
:1020A000C6010E94AA06811167CF8091200280FD9F
:1020B00063CF982F907F09F45FCFD80115968C934A
:1020C0001597903F09F4BACF982F907F905F8F704B
:1020D000892BB2CF60901D025701A21AB30A662065
:1020E00009F41DCF60E08BE192E00E94EA066BE10B
:1020F00072E00E948B0620912002207FA816B9066C
:1021000008F0D0CE80911E0290911F02211195CE31
:10211000672C892B49F080911B0290911C02282F7B
:1021200029232F3F09F05BCF6BE172E0C6010E94CB
:102130008B06843F914008F43FCEE114F10429F06E
:10214000852D84218F3F09F047CF80E080FF34CE7A
:10215000472D652D842D0E941E0E882309F42CCE58
:102160008BE192E00E94740B86E0EBE1F2E0DF018C
:102170001D928A95E9F70E940F0E5DCEACE0B0E0AB
:10218000E4ECF0E10C94BF284F83588769877A8785
:102190008B879C87CE0107960E94A30E882369F047
:1021A0008A859B85892B39F04F815885842F85231B
:1021B0008F3F09F06BC016E05FC086E0FE013796E6
:1021C000DE01119601900D928A95E1F78A859B8533
:1021D000892B89F38F81988589238F3F61F3209123
:1021E000EA0130E0C9010196877099274091E90121
:1021F0004817190671F40E94B40B1092EA0110926C
:10220000E90186E0EBE1F2E0DF011D928A95E9F752
:10221000D2CF96E0929FD001939FB00D1124A5518B
:10222000BE4FFE01319601900D929A95E1F7809391
:10223000EA010E94EE0DBFCF819FC001112485519C
:102240009E4F0E94A30E8823E9F0E091E9011E9FB2
:10225000F0011124E551FE4F40815181628173816B
:10226000848195810E94E60B8091E90190E00196BE
:10227000877099278093E9018091E9019091EA01A3
:102280008913DACF2C96E3E00C94DB2869857A85F4
:102290008B859C850E94E60B8ECF682F809108016C
:1022A000909109010E94591E0895682F809108019C
:1022B000909109010E94671E0895809108019091F4
:1022C00009010E94751E08958091410285958595AA
:1022D00085950895809141028770089590914102FB
:1022E000977081E009F480E0089580916402089578
:1022F00090916402892B8093640208958095909157
:1023000064029823909364020895109264020895E1
:1023100090916302892B8093630208958095909138
:1023200063029823909363020895109263020895C4
:1023300080914202089508950E949B110895909102
:10234000D40292FF08C090914202981721F0809326
:1023500042020E949C11089580914202882329F034
:102360001092420280E00E949C110895CF93DF9367
:10237000E0910801F0910901809164028183E0916C
:102380000801F0910901818190916302892B818379
:1023900090914202992381F0E0910801F0910901A6
:1023A0008181892B818380910801909109010E948C
:1023B000BE1D81110E94AC11C0910801D09109018C
:1023C00040E250E061E272E0CE010E94122A892BC5
:1023D00059F080E2FE01A1E2B2E001900D928A95EF
:1023E000E1F7CE010E946C1DDF91CF910895089511
:1023F0000E94F71108959091D40292FF11C098E0C5
:10240000899F90011124622B609341020E946A0C03
:10241000809141028595859585950E94F8110895D2
:102420000E946A0C08951092410280E00E94F81107
:102430000895909141028095892380934102282F2D
:10244000277091F4282F082E000C330B92171306D7
:1024500059F09091D40292FF07C085958595859596
:102460000E948C0C0E94131208959091D40292FB4A
:10247000222720F9281769F080FB92F99093D40263
:102480008091D3029091D4020E947F1282E00E9438
:10249000191208958091D40282FB882780F991E077
:1024A00089270E943512089581E00E94351208950F
:1024B00080E00E943512089590E080E00E942D2A6D
:1024C00021E0883E9E4F09F020E0822F089582E0AF
:1024D00090E00E941F2A089583E090E00E941F2A46
:1024E0000895CF9384E090E00E941F2AC82F82E2D3
:1024F00090E00E941F2A982F8C2FCF910895CF93A0
:10250000C92F682F84E090E00E94332A6C2F82E26A
:1025100090E00E94332ACF9108958FE090E00E94CE
:10252000272A0895AB01BC018FE090E00E94452A64
:102530000895AB01BC0183E190E00E94452A089513
:1025400060E070E0CB010E949912089568EE7EEF82
:1025500090E080E00E94512A60E082E090E00E94DA
:10256000332A60E083E090E00E94332A1092E50174
:102570001092E6011092E7011092E80160E084E019
:1025800090E00E94332A64E082E290E00E94332AC5
:1025900060E085E090E00E94332A60E086E090E011
:1025A0000E94332A6FEF87E090E00E94332A40E0D8
:1025B00050E0BA0188E090E00E94452A60E08DE09A
:1025C00090E00E94332A40E050E0BA0188E190E0B8
:1025D0000E94452A60E087E190E00E94332A40E0B3
:1025E00050E0BA018CE190E00E94452A70E060E082
:1025F00080E290E00E94512A40E050E0BA0188E178
:1026000090E00E94452A0E94350608950E94A61275
:102610000895682F8EE090E00E94332A08950E946A
:10262000411F6093770270937802809379029093B0
:102630007A02609373027093740280937502909390
:1026400076020895089508950E9423130895089529
:102650000E942713089585EB95E10E94551D0E9465
:1026600022130E942413089581E008950E943413D8
:102670000895089508950E9439130E943A13089509
:102680000E94B8150E94DB0708950E942C1F0E942B
:10269000E5150E9440130E94DE160E945E210E94F2
:1026A00028130895AAE0B0E0E8E5F3E10C94B72818
:1026B0000E94F715C82E81110E940F1385E6A82EDF
:1026C00082E0B82E10E000E0902E802F0E94DE15F0
:1026D000E82EF501F1905F01F816B9F180917B02C7
:1026E00081FD0E94E4158F2D8E25D12CFF24F394BB
:1026F000982F9F2129F10E943613882399F0DE82BA
:102700009F82EF2081E009F480E088870E94351FD6
:102710008160782F9A8789874E815F8168858A8555
:102720000E94F907F801EB59FD4F8081F826F082ED
:1027300081E0C11001C080E02A96EBE00C94D32820
:10274000D394FF0CF6E0DF12D3CF0F5F1F4F0E3094
:10275000110509F0B9CF8FEF89838A831B820E940C
:10276000351F8160782F9D838C8349815A816B81CD
:102770008D810E94F907DCCF0E9452130E945F19DD
:102780000E94EE070895CF93DF930E94DB14EC01C3
:10279000811521E5920708F042C0811530E59307C5
:1027A00008F09DC0883E910530F5803E910508F007
:1027B00092C0883A910588F4853A910508F084C062
:1027C0008130910509F487C0009709F484C004970B
:1027D00008F081C0D0E0C0E07EC08F3B9105D0F70B
:1027E000C85AD0E0CC0FDD1FCE58DE4F0990D881FB
:1027F000C02DD46470C08115904250F4C11581E0A1
:10280000D80708F068C0CD3ED10520F3D06563C07D
:10281000C11590E4D907F0F2DF70D06A5CC0811571
:1028200025E5920700F5811534E5930708F08BC084
:10283000811543E5940708F073C0C11582E5D807F8
:1028400008F469C0CE018370992721E030E002C00E
:10285000220F331F8A95E2F7C695C69580E2C89F7E
:10286000E001112454C0C11599E5D907A8F4C11598
:1028700028E5D20708F06CC0C11536E5D30708F08B
:10288000A9CF8C2F0E947215C82FD0E0DC2FCC2747
:10289000CC27DF71D0621FC0C1154AE5D40708F408
:1028A0005CC0CE0190568115904208F093CF8D2FD9
:1028B0008F710E94721590E0982F882788279F714A
:1028C0009C012C2BE901E6CFC55AD0E0C056DE4F63
:1028D000C881D0E0D064CE01DF91CF910895E4E0CB
:1028E00096958795EA95E1F783702C2F2695269586
:1028F000237040E2249F90011124382B8C2F837089
:10290000C1E0D0E002C0CC0FDD1F8A95E2F7C22BF8
:10291000D32BDC68E0CFDC2FCC27C16FD06ADBCFB4
:102920008370992721E030E002C0220F331F8A957F
:10293000E2F7C695C69590E2C99FE0011124C22B2B
:10294000D32BDA68C8CFD82FCC27C46FD06AC3CFB7
:10295000DC2FCC27C06FD06ABECF8C2F8F700E9427
:10296000721534E0D695C7953A95E1F7CF709C2F54
:10297000EC01D069B0CF972F7E30A8F4663098F480
:1029800070E026E0929F600D711D1124FB0194E51B
:10299000899FE00DF11D1124EE0FFF1FE455FF4F3D
:1029A00085919491089580E090E008950E94BB1471
:1029B0000E94C313089582389105B1F1B0F48133B8
:1029C000910509F475C048F48932910509F469C08C
:1029D0008A32910509F473C008958533910509F48D
:1029E00059C08933910501F10895833E9105A9F1FC
:1029F00038F4803E9105F9F0823E910549F1089541
:102A0000863E9105A9F1873E9105C9F1843E910565
:102A100019F52091D40221FF1FC08091D30284FDBB
:102A200014C087EE90E008952091D3022370A1F0A6
:102A300080EE90E008952091D30220FD47C03091B0
:102A4000D40230FF09C024FF44C090E080E004C0FD
:102A50002091D30222FDF7CF08952091D30222FDC9
:102A60003BC03091D40230FDE3CF24FFF5CFEDCF52
:102A70002091D30223FFF0CF24FDE7CFD2CF2091C6
:102A8000D30223FD2CC03091D40231FFEECF84EE6F
:102A900090E008952091D30225FFDECF89E290E0F7
:102AA00008952091D30225FFD7CF85E390E00895C4
:102AB0002091D30226FFD0CF8AE290E008952091A2
:102AC000D30226FFC9CF81E390E0089589E390E027
:102AD000089583EE90E0089582EE90E0089586EEEA
:102AE00090E008959091D30292FF06C0282F28719C
:102AF0002830F9F4877F846093FF06C0282F28715F
:102B00002831F1F4877E84612091D40220FF06C031
:102B1000382F38713830D9F4877F816021FF06C0A3
:102B2000282F28712831D1F4877E816194FD877E1A
:102B30000895282F24712430F9F68B7F8860DCCF2C
:102B4000282F2471243101F78B7E8861DDCF382F47
:102B50003171313019F78E7F8860E0CF282F2171D5
:102B6000213121F78E7E8861E1CF80E008950895BC
:102B70000E945C12811102C00E9406130E9467121B
:102B800080937B020E9471129093D4028093D302AF
:102B90000E94B7150E946C12682F70E090E080E0F0
:102BA0000E94020C6091E1017091E2018091E301C9
:102BB0009091E4010E943E0C08950895E82FF0E002
:102BC000ED51FD4F8081089508950E94B404E5ED14
:102BD000F2E0A3EEB2E011921D9282E0E33EF8072C
:102BE000D1F78EE00E940A160E9402070895CF9343
:102BF00085ED92E00E94C004C82F282F4EE063EEBE
:102C000072E085ED92E00E941D160E9405078C2F50
:102C1000CF910895CF93C82F90E00E94E72880932A
:102C20007F0290938002282FFC018E2F821B8C172D
:102C300010F0CF9108951192F8CFB0E0A0E0E3E258
:102C4000F6E10C94BB28082FF92EE62ED72E142F70
:102C5000C22FD0917C02DD2309F448C00E94351FA9
:102C600020917D0230917E02AC01421B530B9A01F0
:102C700090937E0280937D024F3F510509F0C8F486
:102C8000452B99F010927C021092810240917F02B4
:102C9000E42FF091800290E030E08E2F841B8117AA
:102CA00058F030937C0290938102C1112DC0CD2F3A
:102CB0001FC02FEF30E0E6CF8081882321F0281756
:102CC00020F010829D2F3196E8CF821B80833D2F0C
:102CD000FACF29914C91421731F04081411103C044
:102CE00030832C9381E0319611961AC0211106C0D1
:102CF000809181028823D1F0C11106C00E94351F46
:102D000090937E0280937D0290917F0280917C025D
:102D1000AE2DBD2DC02FDF2DE92FF09180023EE1B9
:102D20002E2F291B2117A8F280937C02CDB7DEB786
:102D3000E7E00C94D7280E94D5210E9445130E94F9
:102D4000E22108950E94E7210E94BC130E94012203
:102D500008950E94CE1E0E94BB210E942B130E9448
:102D60009B160E94A2160E943B13FBCF86E0EAE866
:102D7000F2E0DF01982F1D929A95E9F7E4E8F2E07E
:102D8000DF011D928A95E9F70895A5E0B0E0EBEC2C
:102D9000F6E10C94C0286B837C838D838C819D81AC
:102DA000892B21F0CA0189238F3F31F480E08170A3
:102DB0002596E2E00C94DC288B81F9CF0E945C120E
:102DC000811102C00E9406138DE090E00E941F2A2C
:102DD000809382020895CF93C82F0E94B616C093A5
:102DE00082026C2F8DE090E00E94332ACF910895EB
:102DF00081E0089581E0089581E00895EF92FF92C7
:102E00000F931F93CF93DF937C01EB0180E3E816D0
:102E10008AE5F806E9F030F4C7019A558A9790F1EF
:102E2000C1E01DC0F1E3EF16FAE5FF06C9F781E343
:102E30009AE50E94FC16882389F0488159816A81AD
:102E40007B818C810E94C516882341F081E017C0E8
:102E500080E39AE50E94FC16811107C0C0E08C2F28
:102E6000CDB7DEB7E6E00C94D828488159816A8155
:102E70007B818C810E94C516882381F380E00E94AB
:102E8000EB16ECCFC7010E94FC16882339F3109192
:102E900082021123F9F0113009F445C00091830238
:102EA00024E832E0412FBE01C7010E94FA168823B0
:102EB000A9F2488159816A817B818C810E94C51663
:102EC000C82F80918302CC2309F458C08F5F809370
:102ED0008302C4CF488159816A817B818C810E94A1
:102EE000C516F701FF27E451FA4F9491A92FA29537
:102EF000A695A695A370B0E0882371F09D01265792
:102F00003D4FF9018081892B8083AC57BD4F8C9157
:102F1000E92FE82BEC93C2CFA657BD4FE92FE095E0
:102F20008C91E823F7CF488159816A817B818C811C
:102F30000E94C516482F8E2D67E00E947628292F03
:102F4000E82FF0E086E090E0821B910921E030E07C
:102F500001C0220F8A95EAF7DF01A657BD4F8C9179
:102F6000442341F0822B8C93EC57FD4F8081282B1A
:102F7000208394CF209528232C9390CF815018162E
:102F80000CF4A5CF1092830264E872E08091820273
:102F90000E94F816882331F080918202882329F05C
:102FA000813099F00E94B6165ACF04E812E0F80179
:102FB00081918F0181110E947E21F2E008381F0764
:102FC000B1F780E00E947E21EDCF8091840280687D
:102FD0008093840204E812E08AE8E82E82E0F82E6A
:102FE000F80181918F010E947E21E016F106C1F760
:102FF000D9CF8091970280FF0DC060910F0170E0E2
:10300000660F771F6038710570F56115710569F1FC
:10301000862F089581FF07C060910F0184E0689FAB
:10302000B0011124EFCF60910F0182FD0AC08091A1
:1030300096028823A9F020910E0160910F0182175A
:1030400010F088E0ECCF869FC001112433E0880F98
:10305000991F3A95E1F7622F70E00E949628D2CF2F
:1030600068E070E0D5CF8FE7089581E00895809102
:10307000970280FF0CC060910B0170E07595679519
:10308000759567956115710549F1862F089581FF42
:1030900006C060910B0170E075956795F3CF609164
:1030A0000B0182FD0BC0909195029923A1F06091D4
:1030B0000A0180910B01961738F0682F70E0603894
:1030C000710500F38FE70895899FC001112470E016
:1030D0000E949628F4CF61E070E0D7CF81E0089598
:1030E0008D3E31F40E94F917819580939B020895DB
:1030F0008E3E19F40E94F917F8CF8F3E31F40E94EA
:10310000F917819580939A020895803F19F40E94DF
:10311000F917F8CF893F29F40E94371880939C0251
:1031200008958A3F21F40E9437188195F7CF8B3F8D
:1031300031F40E943718819580939D0208958C3F49
:1031400019F40E943718F8CF9FE0980F983070F468
:10315000815F990B21E030E001C0220F8A95EAF7E8
:1031600080919902822B8093990208958D3F31F4CA
:103170008091970281608093970208958E3F21F499
:10318000809197028260F7CF8F3FB9F780919702C5
:103190008460F1CF40919A028D3E59F480919B0258
:1031A00087FF0DC010929B0241110BC01092960236
:1031B00008C08E3E81F480919B0218169CF3442334
:1031C00081F080919C0290919D02892B09F05AC058
:1031D0001092950208958F3E49F447FFF0CF109268
:1031E0009A0280919B028111ECCFE0CF803F19F4CD
:1031F0001416ACF3E4CF90919C02893F29F4191680
:10320000F4F610929C02DBCF8A3F19F497FFD7CFD8
:10321000F8CF90919D028B3F29F497FFD0CF109269
:103220009D02CDCF8C3F19F41916CCF3C8CF9FE087
:10323000980F983090F4815F990B21E030E0B9014C
:1032400002C0660F771F8A95E2F7CB0180959091B7
:103250009902892380939902B2CF8D3F31F48091F6
:1032600097028E7F80939702AACF8E3F21F48091A0
:1032700097028D7FF7CF8F3F09F0A1CF8091970202
:103280008B7FF0CF08950E94351F9C0190919A0288
:1032900080919B02982B21F030939402209393020B
:1032A00090919C0280919D02982B21F03093920284
:1032B0002093910288E992E00E94841D0895A6E07F
:1032C000B0E0E5E6F9E10C94BF2886E0E8E9F2E039
:1032D000DE01119601900D928A95E1F710929A0203
:1032E00010929B0210929C0210929D028B819C81F5
:1032F000892B81F080919302909194020E944D1F3E
:10330000AC0190919602992391F18091100184175C
:103310001506D0F18D819E81892B91F080919102CB
:10332000909192020E944D1FAC01909195029923B9
:1033300009F46BC080910C018417150608F473C062
:10334000BE016F5F7F4F88E992E00E94871E811166
:103350000E94431986E0FE013196A8E9B2E001908F
:103360000D928A95E1F72696E3E00C94DB282091F4
:1033700090028AE0289F900111242417350750F607
:103380009F5F9093960202C09F3FD1F71B8111234C
:1033900059F00E94F9179FEF11160CF491E0899FE4
:1033A000802D112480939A021C81112359F00E94D0
:1033B000F9179FEF11160CF491E0899F802D1124CD
:1033C00080939B0230919A02332309F4A3CF20917A
:1033D0009B02222309F49ECF45EB3403C001112444
:1033E000992359F090939A0245EB240390011124FC
:1033F000332339F030939B028DCF81E080939A0282
:10340000F3CF81E080939B0285CF20910D018AE06C
:10341000289F900111242417350708F091CF9F5F52
:103420009093950202C09F3FD1F71D81112359F05F
:103430000E9437189FEF11160CF491E0899F802DA0
:10344000112480939C021E81112359F00E94371889
:103450009FEF11160CF491E0899F802D1124809329
:103460009D0230919C02332309F46ACF20919D0282
:10347000222309F465CF45EB3403C00111249923BD
:1034800059F090939C0245EB2403900111243323BF
:1034900039F030939D0254CF81E080939C02F3CFAA
:1034A00081E080939D024CCF86E0E8E9F2E0DF0105
:1034B0001D928A95E9F71092960210929502109249
:1034C00097020895CF93DF93EC01FB01828188235B
:1034D00009F433C1C430FDE5DF07C0F5CB3F9CE5FF
:1034E000D90730F49E0122503C4524313105B0F516
:1034F0000E9471129093D4028093D302C1318CE563
:10350000D80709F4EEC008F069C0C930ECE5DE0761
:1035100009F4D5C0C8F5C5308CE5D80709F4C7C093
:1035200000F5C330ECE5DE0709F4B9C008F0BBC014
:10353000C230DC4509F4ADC08091D3029091D40231
:103540000E947F120E94B40B80E008C0C236EDE5F5
:10355000DE0771F2C63AFDE5DF0751F2DF91CF9148
:1035600008958091D3028062C7309CE5D90709F4A1
:1035700093C08091D3028061C830DC4508F48CC0D0
:103580008091D302806488C08091D3028B7FCD303C
:10359000FCE5DF0709F480C098F48091D3028E7FA8
:1035A000CB309CE5D90709F477C08091D3028C60B9
:1035B000CC30DC4508F470C08091D3028D7F6CC0A4
:1035C0008091D3028F7ECF30FCE5DF0709F464C021
:1035D00008F47BC08091D3028F7D5EC0CE3F9CE516
:1035E000D90709F47AC050F5C531FCE5DF0709F4C5
:1035F00086C098F48091D302837FC3319CE5D907BC
:1036000009F44AC008F471C00E94B40B9091D3022F
:10361000892F97FB87F980583FC0CC3FFCE5DF0737
:1036200009F449C008F055C08091D4028160CB3FB5
:10363000DC4509F081CF8093D4027ECFC230EDE526
:10364000DE0709F468C0A8F4C1158DE5D80709F4B0
:1036500052C08091D4028360C130DD4560F3809117
:10366000D402982F909591708E7F892B90FB81F9D1
:10367000E2CFC236EDE5DE0709F451C0C63AFDE5FA
:10368000DF0709F453C0C330DD4509F055CF80E0B2
:1036900043C08091D30281608093D3024DCF80914B
:1036A000D3028260F9CF8091D3028460F5CF8091FC
:1036B000D3028860F1CF8091D4028260BCCF0E9497
:1036C000B40B8091D3028068E7CF8091D302877FCB
:1036D000E3CF8091D4028E7FAECF8091D4028D7FD4
:1036E000AACF8091D3028F7BD7CF0E94B40B809159
:1036F000D3028F77D1CF8091D4028C7F9CCF8091E1
:10370000D30282FB992790F921E0922790FB82F95E
:1037100090FB83F9C1CF81E00E9409130DCF9091F6
:10372000D302892F8F7E94FF8061B6CF9091D30210
:10373000892F8E7F90FF8160AFCF81E00FCFCF9335
:10374000DF93EB0186319C4511F50E9475119A813A
:10375000992399F08A7A91E009F490E090939E027F
:10376000811109C089E20E944D110E94B61180E0CA
:10377000DF91CF91089585E3F6CF80919E0281116C
:1037800004C089E20E945511F0CF85E3FBCF81E0B0
:10379000EFCFB0E0A0E0EFECFBE10C94B8287C01A7
:1037A0005B01C42FD22FFC0182818823C9F0409392
:1037B000A1020E94351F9093A00280939F0280E295
:1037C0008C0F883040F4C77081E001C0880FCA9523
:1037D000EAF70E943F09CDB7DEB7EAE00C94D4289F
:1037E0001091A102141338C080919F029091A00201
:1037F0000E944D1F6C01B701C5010E948B06C816BF
:10380000D90650F5C0E2CD0F1D17C1F080E2810F3F
:10381000883048F4177081E0012E01C0880F0A94A7
:10382000EAF70E944609C83048F481E09D2F97705E
:1038300001C0880F9A95EAF70E943F09802F0E94E5
:103840003609C83040F6D77081E001C0880FDA959C
:10385000EAF70E944609BFCF80E28C0F883008F05B
:10386000BACFC77081E001C0880FCA95EAF7F1CFDF
:103870000F939C01CB01243F4CE5340759F1A8F488
:10388000293DFCE53F0701F12A3D4CE53407D1F124
:10389000283D3C4591F406E221EE41EE68ED7CE5E1
:1038A0000E94C91B80E00F910895263FFCE53F0769
:1038B000E9F0B0F0273F3C45F9F0FC018281882314
:1038C00039F11092A102EFCF07E225EE45EE69ED46
:1038D0007CE5E6CF06E221EE40EE64EF7CE5E0CF4A
:1038E00007E225EE44EE65EF7CE5DACF06E221EE55
:1038F00042EE66EF7CE5D4CF07E225EE46EE67EFB9
:103900007CE5CECF08E221E045EE6AED7CE5C8CF4C
:1039100081E0C9CF1092B9008CE08093B80008957F
:10392000B0E0A0E0E6E9FCE10C94B728B82EEB018A
:103930000E94351F6C01EE24E394F12CC431D105B3
:1039400060F025E0E22EF12CCF3FDC0731F0CE0114
:1039500064E170E00E9482287B0184EAA82E94E84A
:10396000992E1092BC00A092BC000E94351F8C01C1
:103970008091BC0087FF0DC08091B900887F88309E
:1039800001F18091B900887F8031D9F00FEF1FEFEE
:1039900009C00E94351F801B910B8E159F0540F3B7
:1039A0000EEF1FEFCF3FDC07E1F2C6010E944D1F73
:1039B0008C179D07B0F2C801CDB7DEB7EBE00C94D1
:1039C000D328B092BB009092BC000E94351F8C019E
:1039D0008091BC0087FF0AC08091B900887F883140
:1039E00011F0803499F610E000E0E5CF0E94351F19
:1039F000801B910B8E159F0558F3D2CF0F931F9309
:103A0000CF93DF93EB018093BB0084E88093BC00ED
:103A10000E94351F8C018091BC0087FF11C020914E
:103A2000B900287F81E090E0283211F490E080E036
:103A3000919581959109DF91CF911F910F910895F3
:103A4000CF3FDC0741F30E94351F801B910B8C1781
:103A50009D0708F38EEF9FEFEECF0F931F93CF9349
:103A6000DF93EC0184E88093BC000E94351F8C0139
:103A70008091BC0087FF08C08091BB0090E0DF917F
:103A8000CF911F910F910895CF3FDC0789F30E94DA
:103A9000351F801B910B8C179D0750F38EEF9FEF06
:103AA000EECF84E98093BC0008959093A5018093A4
:103AB000A40108959093A7028093A6020895E0912F
:103AC000A602F091A702309729F00190F081E02D35
:103AD0000995089580E00895E091A602F091A7026B
:103AE000309779F020913801222361F02091D302A0
:103AF00027FF08C026E0DC012C930280F381E02D33
:103B00000995089521E0F7CFE091A602F091A70270
:103B1000309739F022E0DC012C930480F581E02D10
:103B2000099508952091A4023091A502281739071C
:103B300071F09093A5028093A402E091A602F09107
:103B4000A702309721F00680F781E02D09950895AE
:103B50002091A2023091A3022817390771F09093A7
:103B6000A3028093A202E091A602F091A7023097EF
:103B700021F00084F185E02D099508959C012D5FC9
:103B80003F4F40913801442359F04091D30247FF01
:103B900007C0215031099EE180E0915018F408954A
:103BA00096E0FACFF90141919F014423B1F38F5F71
:103BB000F4CF662301F1209138012223F1F0209106
:103BC000D30227FF1AC0462F4695469546954E319B
:103BD00090F4677021E030E002C0220F331F6A9535
:103BE000E2F7840F911DFC01828190E028233923A4
:103BF00081E0232B69F480E00895FC013396099657
:103C00002191261721F0E817F907D1F7F4CF81E0C9
:103C100008959C01FC0133969FEF80E04191461787
:103C200051F09F3F19F4411101C0982F8F5F8630EA
:103C3000A9F79F3F09F40895290F311D97FD3A9583
:103C4000F90163830895FC013396099621912613A7
:103C500003C0DF0111971C92E817F907B9F708951F
:103C6000E62FE695E695E695EE3168F4E80FF92F34
:103C7000F11D677021E030E001C0220F6A95EAF77C
:103C80008281822B82830895E62FE695E695E6955C
:103C9000EE3170F4E80FF92FF11D677021E030E08C
:103CA00001C0220F6A95EAF720958281282322839A
:103CB000089520913801222339F02091D30227FF63
:103CC00003C00E94301E08950E94091E089520918D
:103CD0003801222339F02091D30227FF03C00E942C
:103CE000441E08950E94231E089520913801222326
:103CF00059F02091D30227FF07C002962EE1FC0164
:103D000011922A95E9F70895039626E0F8CF46E048
:103D100050E00E94122A21E0892B09F420E0822F32
:103D2000089508950E94911E0895811106C081E0B2
:103D30008093A8020E94921E089582E0F9CF83E04A
:103D40008093A8020E94921E08950E94951E0895D5
:103D500081E08093A8020E94921E08950E94A81EEE
:103D60000895089508950E94B21E089508950E942E
:103D7000B11E0895CF930E9412050E94F7150E946C
:103D8000B61EC0E08C2F0E94DE15811105C0CF5FEA
:103D9000CE30C1F7CF91089581E0FCCF85B7806820
:103DA00085BF85B7806885BF08951F921FB61F9293
:103DB00011248F939F93AF93BF938091A902811198
:103DC00013C08091F1029091F202A091F302B091A0
:103DD000F4024196A11DB11D8093F1029093F2026D
:103DE000A093F302B093F402BF91AF919F918F9192
:103DF0001F901FBE1F9018958091F902843031F1F9
:103E00000E947B071092A90288E190E020E40FB69F
:103E1000F894A895809360000FBE2093600083B74C
:103E2000817F846083BF83B7816083BF78948895E6
:103E300083B78E7F83BF0FB6F894A89580916000FA
:103E4000886180936000109260000FBE08950E9408
:103E5000B40B0E948007089582E084BD93E095BD75
:103E60009AEF97BD80936E0008952FB7F8948091D4
:103E7000F1029091F202A091F302B091F4022FBFEF
:103E800008952FB7F8946091F1027091F202809139
:103E9000F3029091F4022FBF08959C014FB7F8945C
:103EA0008091F1029091F202A091F302B091F4029C
:103EB0004FBF821B930B089578941F921FB61F92D9
:103EC00011248F939F93AF93BF938091F1029091B0
:103ED000F202A091F302B091F4020196A11DB11D6E
:103EE0008093F1029093F202A093F302B093F40254
:103EF000BF91AF919F918F911F901FBE1F901895FA
:103F0000F89481E08093E00080E28093D800E9ECAF
:103F1000F0E010828FE19EE40197F1F700C000000D
:103F20001DBA109268001CBC10BE1FBA10927A0015
:103F300010926E0010926F00109271001092720039
:103F40001082ECEBF0E0108214B817B81AB81DB864
:103F500010BA108215B818B81BB81EB811BA0C9454
:103F6000003F089588E19AE00FB6F894A8958093F1
:103F700060000FBE90936000FFCF8091CD02089546
:103F800008959C0181E08093E9009FEF8091E80013
:103F9000915085FD06C085ED8A95F1F700009111DD
:103FA000F5CF8091E80085FF0CC050E040E066E06E
:103FB00070E0C9010E9467228091E8008E778093AB
:103FC000E8000895CF93DF93EC01809138018823B6
:103FD00021F08091D30260E287FF69E081E0809365
:103FE000E9008FEF9091E800815095FD06C095EDB6
:103FF0009A95F1F700008111F5CF8091E80085FFD7
:1040000019C080913801811118C050E040E068E08B
:1040100070E0CE0101960E9467228091E8008E77C1
:104020008093E80080E2FE01ADEAB2E001900D92DB
:104030008A95E1F7DF91CF91089570E050E040E07C
:10404000CE01E9CF8093AA027093AC026093AB02D9
:104050008091F902843001F581E08093E9008FEFCF
:104060009091E800815095FD06C095ED9A95F1F785
:1040700000008111F5CF8091E80085FF0DC050E070
:1040800040E063E070E08AEA92E00E94672280915B
:10409000E8008E778093E8000895BC0184E00E94D8
:1040A00022200895BC0183E00E942220089580917F
:1040B000F802811109C00E94F7230E9454248091C4
:1040C000E20084608093E20008951092F80208955F
:1040D0000E94A81E08956091F50281E0611101C05F
:1040E00080E00E949F1E08959091F90281E0943033
:1040F00009F080E06091F5020E94A51E089542E259
:1041000061EC81E00E94732342E061EC82E00E9456
:10411000732342E160E884E00E94732342E161E896
:1041200083E00E9473239091F90281E0943009F0BA
:1041300080E06091F5020E94951E08958091FB0237
:10414000833009F462C050F48130D9F1823009F42F
:10415000A4C081E191E00E94C82756C08A3009F4CA
:104160008BC08B3009F46EC0893099F78091FA02C8
:10417000813279F78091FE029091FF02892B49F7F5
:104180008091E800877F8093E8008091E80082FFBB
:1041900037C09091F3008091F200029731F4809142
:1041A000F100813011F0863021F48091F10080938C
:1041B000CD028091E8008B778093E8000E94A723CE
:1041C000C8CF8091FA02813A21F68091E800877F7A
:1041D0008093E8008091FE029091FF02892B61F4A8
:1041E00060E28DEA92E070E00E94B6228091E800E1
:1041F0008B778093E800ADCF60E090E080E0F3CF74
:104200008091F9028111C1CF08958091FA02813A1B
:1042100009F09FCF8091FE029091FF02892B09F057
:1042200098CF8091E800877F8093E8008091E80034
:1042300080FFFCCF809138018093F1008091E800ED
:104240008E77BACF8091FA02813209F082CF8091C5
:10425000FE029091FF02892B09F07BCF8091E8004C
:10426000877F8093E8000E94A7238091FC028093BF
:1042700038010E94B40B6DCF8091FA02813209F0AF
:1042800068CF8091E800877F8093E8000E94A72391
:104290008091FD028093CE025CCF8091FA02813A38
:1042A00009F057CF8091E800877F8093E8008091E4
:1042B000E80080FFFCCF8091CE02BECF82E090E08C
:1042C000909324018093230181E191E00E948C2747
:1042D00008950895CF93DF9381E191E00E94332701
:1042E000EC01209719F4DF91CF91089581E191E0DD
:1042F0000E945C270E9469212197F3CFCF93C09140
:10430000E9002091EC00922F917020FD90E820911F
:10431000210120FF12C0CF70C92B909112019F7014
:104320009093E9009091EB0090FF04C09091EE0013
:1043300097FD05C0CF70C093E900CF9108959FEF1E
:104340002091E800915025FD06C025ED2A95F1F752
:1043500000009111F5CF8093F10081E191E00E947E
:10436000EE268091E80080FFE5CF8091E8008E770F
:104370008093E800DFCF84B7877F84BF0FB6F894BF
:10438000A895809160008861809360001092600021
:104390000FBE80E890E00FB6F89480936100909390
:1043A00061000FBE0E94AE1E08950E94F7230E9476
:1043B0005424E2EEF0E080818460808378940E944F
:1043C000D32608958CE291E00E945A1D08958091B1
:1043D000F902853031F48091F902853019F00E949C
:1043E000271F08950E94FC1E8091F702882399F3ED
:1043F0000E94BA1E882379F30E9451220E94B40BB6
:10440000EACF0E946A2181E191E00E941C27089571
:104410000E940B220895292F332723303105C9F03C
:1044200058F42130310599F122303105A9F190E09D
:1044300080E030E020E01DC02132310509F1223258
:104440003105A9F788EF90E023EE36E0672B79F786
:1044500010C099278130910581F0009729F00297CB
:1044600031F7ECE2F6E002C0EEE6F6E0849190E08F
:104470009F01FA01318320830895E4E4F6E0F6CF4A
:1044800089E090E024E836E0672B89F6F2CF82E1FC
:1044900090E021ED36E0EDCF8FE590E022E736E0C9
:1044A000E8CF80E189BD82E189BD09B400FEFDCF7E
:1044B0008091D8008F7D8093D8008091E000826049
:1044C0008093E0008091E00081FDFCCF0895AF92E1
:1044D000BF92CF92DF92FF920F931F93CF93DF9300
:1044E0006C01EB018A010E94C623F82E811123C0C2
:1044F0000115110539F0F80180819181C81BD90B94
:10450000C80ED91EB12CA12C2097A9F08091E800EB
:1045100085FD22C08091E8008E778093E800011528
:104520001105A1F0F80180819181A80EB91EB18218
:10453000A08285E0F82E8F2DDF91CF911F910F91F2
:10454000FF90DF90CF90BF90AF9008950E94C62358
:104550008823D1F2F82EEFCFF60181916F0180937D
:10456000F1002197FFEFAF1ABF0ACECFFC01809177
:1045700000039091010386179707A0F0611571055C
:1045800029F49091E8009E779093E80090E06115FF
:10459000710551F4911108C08091E80082FF34C088
:1045A00080E00895BC01F2CF8091F9028823C1F127
:1045B0008530C1F18091E80083FD30C08091E80032
:1045C00082FDEACF8091E80080FFE1CF8091F30087
:1045D0002091F200382F6115710519F0283031054E
:1045E00058F091E02830310509F090E02091E80082
:1045F0002E772093E800CBCF81918093F10061501A
:1046000071092F5F3F4FE7CF8091F902882341F076
:10461000853041F08091E80083FFBECF81E00895AE
:1046200082E0089583E00895FC0180910003909159
:10463000010386179707A0F06115710529F4809191
:10464000E8008E778093E80090E06115710551F4E1
:10465000911108C08091E80082FF35C080E0089584
:10466000BC01F2CF8091F9028823C9F18530C9F1EC
:104670008091E80083FD31C08091E80082FDEACF9F
:104680008091E80080FFE1CF8091F3002091F2005B
:10469000382F6115710519F02830310558F091E077
:1046A0002830310509F090E08091E8008E77809302
:1046B000E800CBCF84918093F1003196615071096D
:1046C0002F5F3F4FE6CF8091F902882341F085307C
:1046D00041F08091E80083FFBDCF81E0089582E042
:1046E000089583E00895982F973028F08F70809375
:1046F000E90081E008959093E900242F762F50E09F
:10470000981731F07091EC002091ED005091F0007D
:1047100021FD02C09F5FE8CF3091EB003E7F3093D8
:10472000EB003091ED003D7F3093ED003091EB00D8
:1047300031603093EB007093EC002093ED005093C8
:10474000F0002091EE0027FDE5CF80E008958091F4
:10475000FA0287FF13C08091E80082FF06C08091B3
:10476000E8008B778093E80004C08091F902811102
:10477000F2CF08958091F9028823D9F38091E8005F
:1047800080FFF8CF8091E8008E77ECCF2091E40095
:104790003091E50095E6A9012091EC00822F81700F
:1047A00020FF06C08091E80080FF06C080E00895E9
:1047B0002091E80022FD1AC08091F902882389F037
:1047C000853089F08091EB0085FD0FC02091E400D9
:1047D0003091E50042175307F9F29150E1F684E079
:1047E000089582E0089583E0089581E008950E948D
:1047F00066240E946E24E0EEF0E080818160808378
:10480000E8EDF0E080818F77808319BCA7EDB0E000
:104810008C918E7F8C9380818F7E80831092F802A2
:1048200008950F931F93CF93DF930E9466240E94F5
:104830006E24C8EDD0E088818F7788838881806876
:10484000888388818F7D888319BC1092F902109229
:10485000F5021092F7021092F60200EE10E0F80155
:1048600080818B7F808388818160888342E060E0E3
:1048700080E00E947323E1EEF0E080818E7F8083F0
:10488000E2EEF0E0808181608083808188608083B7
:10489000F80180818E7F8083888180618883DF91A9
:1048A000CF911F910F910895E8EDF0E080818F7E08
:1048B0008083E7EDF0E080818160808384E082BFC7
:1048C00081E08093F8020E9411240895E8EDF0E061
:1048D00080818E7F80831092E20008951092DA002A
:1048E0001092E10008951F920F920FB60F921124BB
:1048F0002F933F934F935F936F937F938F939F93E8
:10490000AF93BF93EF93FF938091E10082FF0BC0C1
:104910008091E20082FF07C08091E1008B7F80934D
:10492000E1000E94D2268091DA0080FF19C08091B8
:10493000D80080FF15C08091DA008E7F8093DA0066
:104940008091D90080FF96C080E189BD82E189BD58
:1049500009B400FEFDCF81E08093F9020E94572048
:104960008091E10080FF19C08091E20080FF15C0B6
:104970008091E2008E7F8093E2008091E20080616E
:104980008093E2008091D80080628093D80019BCA7
:1049900085E08093F9020E946B208091E10084FF02
:1049A0002BC08091E20084FF27C080E189BD82E1B5
:1049B00089BD89B5982F917080FFFBCF8091D80079
:1049C0008F7D8093D8008091E1008F7E8093E100FD
:1049D0008091E2008F7E8093E2008091E20081600E
:1049E0008093E2008091F502882309F449C084E0B5
:1049F0008093F9020E9474208091E10083FF29C016
:104A00008091E20083FF25C08091E100877F809341
:104A1000E10082E08093F9021092F5028091E100BA
:104A20008E7F8093E1008091E2008E7F8093E20090
:104A30008091E20080618093E20042E060E080E0EB
:104A40000E9473238091F00088608093F0000E94A0
:104A50006820FF91EF91BF91AF919F918F917F91CE
:104A60006F915F914F913F912F910F900FBE0F90DB
:104A70001F90189519BC1092F9020E94652070CF02
:104A80008091E30087FD93E09093F902B3CF1F92EA
:104A90000F920FB60F9211242F933F934F935F9372
:104AA0006F937F938F939F93AF93BF93CF93DF9336
:104AB000EF93FF93D091E900DF708091EC00C82F55
:104AC000C17080FDC0E81092E9008091F000877FFE
:104AD0008093F00078940E948B251092E9008091D9
:104AE000F00088608093F000CD2BCF70C093E90078
:104AF000FF91EF91DF91CF91BF91AF919F918F91F6
:104B00007F916F915F914F913F912F910F900FBEC9
:104B10000F901F901895AAE2B0E0E1E9F5E20C943D
:104B2000BF288AEF92E02091F100FC012193CF0190
:104B3000F3E082309F07B9F70E949E208091E80041
:104B400083FF1EC18091FA029091FB029A3008F017
:104B500017C1E92FF0E0E458F54D0C94AA288038ED
:104B600099F0823809F00CC18091FE028F70873075
:104B700008F006C18093E9008091EB0085FB88274F
:104B800080F91092E90006C08091F6029091F70238
:104B9000911182609091E800977F9093E800809354
:104BA000F1001092F1008091E8008E77E5C0882333
:104BB00009F4D3C0823009F0E3C08091FC02811176
:104BC000D6C08091FE028F702FEF280F263008F09C
:104BD000D7C08093E9002091EB0020FFC8C093303C
:104BE00031F48091EB0080628093EB00C0C0909123
:104BF000EB0090619093EB0021E030E001C0220FC8
:104C00008A95EAF72093EA001092EA008091EB007F
:104C10008860EACF8111B4C01091FC021F778091A7
:104C2000E3008078812B8093E3008091E800877F08
:104C30008093E8000E94A7238091E80080FFFCCFCA
:104C40008091E30080688093E30082E0111183E0AB
:104C50008093F90295C08058823008F091C080910D
:104C6000FC029091FD028C3D23E09207A1F583E0C8
:104C70008A838AE289834FB7F894DE01139620E095
:104C80003EE051E2E32FF0E050935700E49120FF23
:104C900003C0E295EF703F5FEF708E2F90E0EA3037
:104CA000C0F0C7968D939D932F5F243159F74FBF66
:104CB0008091E800877F8093E8006AE270E0CE018F
:104CC00001960E94B6228091E8008B778093E800DD
:104CD00057C0C096E7CF6091FE027091FF02AE010F
:104CE0004F5F5F4F0E940822BC01892B09F448C026
:104CF0009091E800977F9093E80089819A810E94C3
:104D00001423E1CF8038E1F58091E800877F80931C
:104D1000E8008091F5028093F10045CF811130C009
:104D20009091FC02923060F58091E800877F80933B
:104D3000E8009093F5020E94A7238091F502882352
:104D400011F084E005C08091E30087FDFACF81E097
:104D50008093F9020E947F2013C08091FC02813071
:104D600079F481E0933009F080E08093F7021092AB
:104D7000E9008091E800877F8093E8000E94A723E4
:104D80008091E80083FF0AC08091E800877F8093CC
:104D9000E8008091EB0080628093EB00AA96E3E04C
:104DA0000C94DB280895CF938091F9028823A1F019
:104DB000C091E900CF709091EC00892F817090FD37
:104DC00080E8C82B1092E9008091E80083FD0E94E2
:104DD0008B25CF70C093E900CF9108952091F902FF
:104DE000243041F5FC014489558966897789452B32
:104DF000462B472BF9F081818F708093E9009091C9
:104E0000F3008091F200892B11F480E008959091D5
:104E1000E8008091E8008E778093E80095FDF5CF5B
:104E20000E94C623811107C09091E8009E7790935D
:104E3000E800089582E008952091F902243091F469
:104E4000FC014489558966897789452B462B472B78
:104E500049F021812F702093E9002091E80020FD86
:104E60000E94EE2608952091F902243019F090E076
:104E700080E00895FC014489558966897789452B2E
:104E8000462B472BA1F386818F708093E900809198
:104E9000E80082FFECCF9091F3008091F200009740
:104EA00031F42091E8002B772093E8000895909149
:104EB000F3008091F20008952091F902243019F056
:104EC0008FEF9FEF0895FC014489558966897789A2
:104ED000452B462B472BA1F386818F708093E900E9
:104EE0008091E80082FFECCF9091F3008091F20076
:104EF000892B79F08091F10090E03091F3002091BE
:104F0000F200232B29F42091E8002B772093E8006E
:104F100008958FEF9FEFF1CFA8E0B0E0E2E9F7E26C
:104F20000C94BE288C018091F902843059F5F80167
:104F300084899589A689B789892B8A2B8B2B11F1B6
:104F400083858F708093E90088E0E9E3F1E0DE017A
:104F5000119601900D928A95E1F750E040E068E0EB
:104F600070E0CE0101960E94672250E040E062E0CE
:104F700070E0C80142960E9467228091E8008E7717
:104F80008093E8002896E4E00C94DA2808950895C8
:104F9000CF93DF93EC018091E80083FF10C028815C
:104FA0008091FE029091FF022817190641F480912A
:104FB000FB028132E9F030F4803209F44EC0DF9117
:104FC000CF910895823209F47BC08332C1F780917A
:104FD000FA028132A1F78091E800877F8093E80090
:104FE0000E94A7236091FC02CE010E94C727E7CF51
:104FF0008091FA02813A19F78091E800877F8093C7
:10500000E8008091E80080FFFCCF8C899D89AE8903
:10501000BF898093F100492F5A2F6B2F7727409338
:10502000F100AD01662777274093F1008B2F992778
:10503000AA27BB278093F100888D8093F100898D8A
:105040008093F1008A8D8093F1008091E8008E7743
:105050008093E8000E94A723B2CF8091FA028132A8
:1050600009F0ADCF8091E800877F8093E8008091C0
:10507000E80082FF20C03091F1002091F100909172
:10508000F1008091F1003C8B2D8B9E8B8F8B80915A
:10509000F100888F8091F100898F8091F1008A8FD3
:1050A0008091E8008B778093E8000E94A723CE01CF
:1050B0000E94C62784CF8091F9028111D8CF7FCF7B
:1050C0008091FA02813209F07ACF8091E800877FDF
:1050D0008093E8000E94A7238091FC029091FD023A
:1050E000998B888BCE010E94C62769CF991B79E0E6
:1050F00004C0991F961708F0961B881F7A95C9F768
:1051000080950895AA1BBB1B51E107C0AA1FBB1FB6
:10511000A617B70710F0A61BB70B881F991F5A9543
:10512000A9F780959095BC01CD01089597FB072EB6
:1051300016F4009407D077FD09D00E94822807FC5E
:1051400005D03EF4909581959F4F08957095619597
:105150007F4F0895EE0FFF1F0590F491E02D099405
:105160002F923F924F925F926F927F928F929F9277
:10517000AF92BF92CF92DF92EF92FF920F931F9365
:10518000CF93DF93CDB7DEB7CA1BDB0B0FB6F89416
:10519000DEBF0FBECDBF09942A88398848885F8456
:1051A0006E847D848C849B84AA84B984C884DF80C7
:1051B000EE80FD800C811B81AA81B981CE0FD11DAB
:1051C0000FB6F894DEBF0FBECDBFED0108950F936B
:1051D0001F93CF93DF938230910510F482E090E02B
:1051E000E0910403F091050330E020E0B0E0A0E09E
:1051F000309799F42115310509F447C0281B390B64
:1052000024303105C0F58A819B816115710571F1EA
:10521000FB0193838283FE0111C040815181028191
:10522000138148175907F8F04817590799F4109750
:1052300061F012960C93129713961C933296CF013D
:10524000DF91CF911F910F91089500930403109364
:105250000503F4CF2115310519F04217530718F44F
:105260009A01BD01EF01DF01F801C2CF9093050360
:1052700080930403D0CFFE01E20FF31F819391933B
:105280002250310939832883DACF209102033091EB
:105290000303232B41F42091020130910301309349
:1052A0000303209302032091000130910101211595
:1052B000310541F42DB73EB74091040150910501ED
:1052C000241B350B409102035091030342175307EF
:1052D00008F0B5CF241B350B2817390708F4AFCFDA
:1052E000BC016E5F7F4F2617370708F4A8CF640F05
:1052F000751F7093030360930203FA0181939193E6
:105300009ECFCF93DF930097E9F0FC013297138291
:105310001282C0910403D0910503DE0130E020E049
:105320002097A1F420813181820F931F20910203E5
:10533000309103032817390709F067C0F09303037E
:10534000E0930203DF91CF910895DA01AE17BF0712
:1053500008F040C012964D915C9113979D01411544
:10536000510599F7D9011396FC93EE9312974D913D
:105370005D91A40FB51FEA17FB0779F48081918135
:105380000296840F951FD90111969C938E9382816A
:10539000938113969C938E931297B0E0A0E08A813C
:1053A0009B810097B9F5FE0181919191E80FF91F5A
:1053B00080910203909103038E179F0719F61097AF
:1053C00061F51092050310920403D0930303C09378
:1053D0000203B8CFB383A28340815181840F951F0C
:1053E000A817B90771F44E5F5F4F8D919C9111978B
:1053F000480F591F5183408312968D919C9193833E
:1054000082832115310509F0ADCFF0930503E093B8
:10541000040398CFDE01EC01C2CF13961C921E92BA
:105420001297D3CFFB01DC0104C08D91019080194C
:1054300021F441505040C8F7881B990B0895F99901
:10544000FECF92BD81BDF89A992780B50895A6E157
:10545000B0E044E050E00C94592AA8E1B0E042E00A
:1054600050E00C94592A262FF999FECF92BD81BDA8
:10547000F89A019700B4021639F01FBA20BD0FB692
:10548000F894FA9AF99A0FBE08950396272F0E946E
:10549000342A0E94332A252F0E94342A242F0C9468
:1054A000342A0196272F0E94342A0C94332ADC01D7
:1054B000CB01FC01F999FECF06C0F2BDE1BDF89A1F
:1054C000319600B40D9241505040B8F70895F894C9
:1054D000FFCF72067E0683067C0681068806860656
:1054E00086098609D609D6093B0A570AB509B509BE
:1054F000620AEE0AFD0AFD0AAF25D725C026D72588
:0C550000C0260A262B26C02682268E26F6
:10550C00000006032000200043023C0714283C073F
:10551C001401831000000104100000018208000037
:10552C00010000000000000000000000BD1FE21F91
:10553C00C11F52204D20C01F01A1200000000002FD
:10554C0000E200E900EA00B500B600B700CD008328
:10555C0001CC008A0192019401210223022402252C
:10556C0002260227022A02B300B4006F00700081E9
:10557C008283E200E900EA00B500B600B700CD0076
:10558C008301CC008A01920194012102230224029E
:10559C002502260227022A02B300B4006F00700015
:0455AC008182830075
:00000001FF
